:100000000C942A000C943F000C943F000C943F0089
:100010000C943F000C943F000C943F000C943F0064
:100020000C943F000C943F000C943F000C943F0054
:100030000C943F000C943F000C943F000C943F0044
:100040000C943F000C943F000C943F000C943F0034
:100050000C943F0011241FBECFE5D8E0DEBFCDBF1A
:1000600010E0A0E6B0E0E0E7F6E002C005900D92F7
:10007000A636B107D9F70E94C1020C9436030C943E
:1000800000001F93182F482F417080E063E00E940A
:10009000C201412F4695417080E064E00E94C20198
:1000A00016951695412F417080E065E00E94C201CF
:1000B0001695117080E066E0412F0E94C2011F91E9
:1000C000089580E062E041E00E94C20180E49FE187
:1000D0000197F1F780E062E040E00E94C2010895DC
:1000E0001F93182F80E061E041E00E94C201812F40
:1000F00082958F700E9441000E946100812F0E94B2
:1001000041000E9461001F910895AF92BF92CF926B
:10011000DF92EF92FF920F931F93DF93CF93CDB7B0
:10012000DEB72A970FB6F894DEBF0FBECDBF6B01C6
:100130007C01611571058105910521F480E30E9420
:10014000700042C097FF0BC0F094E094D094C0942C
:10015000C11CD11CE11CF11C8DE20E94700000E06A
:100160005E010894A11CB11CC701B6012AE030E071
:1001700040E050E00E94F902162FC701B6012AE0C4
:1001800030E040E050E00E941B03C901DA016C013D
:100190007D01F501E00FF11D105D10830F5FC114AB
:1001A000D104E104F10401F7102F11507E010894ED
:1001B000E11CF11C07C0F701E10FF11D80810E94D5
:1001C0007000115017FFF7CF2A960FB6F894DEBFD4
:1001D0000FBECDBFCF91DF911F910F91FF90EF9098
:1001E000DF90CF90BF90AF9008951F93CF93DF9390
:1001F000EC01009711F482E00BC010E003C00E94F4
:1002000070001F5FFE01E10FF11D80818823B9F7A7
:10021000DF91CF911F9108951F93182F80E061E027
:1002200040E00E94C201812F82958F700E944100A0
:100230000E946100812F0E9441000E9461001F9175
:100240000895662319F0613009F4805C80680E948B
:100250000C01089580E991E020E931E0F90131973E
:10026000F1F70197D9F782E00E9441000E946100F6
:1002700082E00E9441000E94610088E00E944100EB
:100280000E9461008CE00E940C0181E00E940C0140
:100290000895683008F074C04423D1F58130A1F08E
:1002A000813030F08230E1F0833009F069C024C041
:1002B0002AB381E090E002C0880F991F6A95E2F7A7
:1002C000809582238ABB5AC027B381E090E002C0A8
:1002D000880F991F6A95E2F78095822387BB4EC0ED
:1002E00024B381E090E002C0880F991F6A95E2F77D
:1002F0008095822384BB42C021B381E090E002C09C
:10030000880F991F6A95E2F78095822381BB36C0DA
:100310004130B1F5813091F0813028F08230C9F060
:10032000833071F521C02AB381E090E002C0880FCC
:10033000991F6A95E2F7282B2ABB20C027B381E0DA
:1003400090E002C0880F991F6A95E2F7282B27BB1F
:1003500015C024B381E090E002C0880F991F6A9510
:10036000E2F7282B24BB0AC021B381E090E002C051
:10037000880F991F6A95E2F7282B21BB80E008952A
:1003800081E00895683008F074C04423D1F58130CD
:10039000A1F0813030F08230E1F0833009F069C0A3
:1003A00024C02BB381E090E002C0880F991F6A95AA
:1003B000E2F7809582238BBB5AC028B381E090E09E
:1003C00002C0880F991F6A95E2F78095822388BB47
:1003D0004EC025B381E090E002C0880F991F6A9556
:1003E000E2F78095822385BB42C022B381E090E092
:1003F00002C0880F991F6A95E2F78095822382BB1D
:1004000036C04130B1F5813091F0813028F0823032
:10041000C9F0833071F521C02BB381E090E002C0B8
:10042000880F991F6A95E2F7282B2BBB20C028B3B1
:1004300081E090E002C0880F991F6A95E2F7282BAF
:1004400028BB15C025B381E090E002C0880F991F3A
:100450006A95E2F7282B25BB0AC022B381E090E021
:1004600002C0880F991F6A95E2F7282B22BB80E013
:10047000089581E00895FA014115510511F482E0D3
:1004800008956830D0F4813049F0813028F082300E
:1004900039F0833091F406C089B305C086B303C038
:1004A00083B301C080B390E002C0959587956A95AB
:1004B000E2F78170808380E0089581E008958130C3
:1004C00051F0813030F0823041F0833049F081E0EA
:1004D00008956ABB03C067BB01C064BB80E0089598
:1004E00061BB80E00895813051F0813030F082307E
:1004F00041F0833049F081E008956BBB03C068BBD5
:1005000001C065BB80E0089562BB80E0089568305B
:10051000B0F5813091F0813028F08230C9F083301D
:1005200071F521C02BB381E090E002C0880F991FC4
:100530006A95E2F728272BBB20C028B381E090E022
:1005400002C0880F991F6A95E2F7282728BB15C0BB
:1005500025B381E090E002C0880F991F6A95E2F709
:10056000282725BB0AC022B381E090E002C0880F93
:10057000991F6A95E2F7282722BB80E0089581E061
:1005800008951F93CF93DF9380E06FEF0E945F0287
:100590000E942A0110E0C0E9D1E013C0812F60E081
:1005A0000E94210180E690E00E94F50080E197E240
:1005B000FE013197F1F70197D9F781E00E940C0114
:1005C0001F5F153058F315E0812F60E00E94210174
:1005D00080E690E00E94F50080E197E2FE0131970D
:1005E000F1F70197D9F781E00E940C01115061F7F2
:1005F000E8CFA1E21A2EAA1BBB1BFD010DC0AA1F4A
:10060000BB1FEE1FFF1FA217B307E407F50720F07B
:10061000A21BB30BE40BF50B661F771F881F991FF6
:100620001A9469F760957095809590959B01AC013F
:10063000BD01CF01089597FB092E05260ED057FD69
:1006400004D0D7DF0AD0001C38F45095409530957F
:1006500021953F4F4F4F5F4F0895F6F79095809546
:10066000709561957F4F8F4F9F4F0895F894FFCFFE
:0606700048656C6C6F0090
:00000001FF
